:100000000EC015C014C013C012C011C010C00FC064
:100010000EC00DC00CC00BC00AC009C008C011241E
:100020001FBECFE5D2E0DEBFCDBF5BD083C0E8CF3F
:10003000DF93CF9300D000D0CDB7DEB79C838B8306
:100040001A82198205C089819A8101969A838983CF
:1000500029813A818B819C8128173907A0F30F9061
:100060000F900F900F90CF91DF910895DF93CF9372
:10007000CDB7DEB728970FB6F894DEBF0FBECDBF61
:100080009E838D8378876F838F81988596958795DA
:100090009C838B831A82198214C088E390E020E14C
:1000A000FC0120838B819C81C3DF88E390E0FC010D
:1000B00010828F819885BCDF89819A8101969A830D
:1000C000898329813A818D819E812817390728F3F8
:1000D00028960FB6F894DEBF0FBECDBFCF91DF914B
:1000E0000895DF93CF93CDB7DEB787E390E020E1AB
:1000F000FC01208386E390E0FC018081882F90E062
:1001000088709070009729F488E390E0FC011082D9
:10011000F1CF8CE291E06AE070E0A8DF84E690E045
:1001200087DF8CE291E068E070E0A0DF80EA9CE885
:080130007FDFE0CFF894FFCF60
:00000001FF
